:1000000000400120A5A4010039FB021039FB0210B9
:1000100039FB021039FB021039FB021039FB0210C8
:1000200039FB021039FB021039FB021039FB0210B8
:0C00300039FB021039FB021011FB02101A
:1010000001000000000000000000000000000000DF
:10101000FFFFFFFFA02300200400000000000000ED
:101020000000000014000000741E00001800000002
:10103000D81C0000C01000000C2300200400000099
:10104000000000000000000024000000601D0000FF
:1010500018000000D9D7000008000000B0110000FF
:1010600074100000C1C8021001BB021091EB021005
:10107000DDE5021081E00210B9E5021071E5021011
:101080002E00000001000000010000008C1E000086
:1010900000000000FFFFFFFF782300200400000095
:1010A0000000000000000000280000004C1E0000AE
:1010B00024000000210000001800000000000000D3
:1010C00028130000D41000009BEC021025E202104F
:1010D00005EB021025DE0210FDE10210E1E4021032
:1010E000330000003400000025002900000000004B
:1010F000EC220020FFFFFFFFC023002004000000BF
:10110000000000000000000038000000001F000088
:101110002800000001000000100000000000000096
:1011200000000000F7F1021000001900100000009C
:1011300004000000641F0000F2B40000080000007A
:101140003600000080230020C82300200900200072
:101150001F6F000014230020010000000000110098
:10116000FFFFFFFFB023002004000000000000008C
:101170000000000010000000C41E00001800000065
:101180000000000000001200FFFFFFFF28240020E5
:1011900004000000000000000000000054000000F7
:1011A000281F00003C00000000000100310000008A
:1011B00004100000A38D00002D00000000000000BE
:1011C000B0110000D811000059D20210D9DB021072
:1011D00059EC0210CDD6021085DE02104DE502104A
:1011E00029E502102D00000000001500000000009D
:1011F00000000000FF7F000030240020FFFFFFFF01
:10120000A8230020040000000000000000000000EF
:1012100058000000901E00003400000039FB02104E
:101220000100330006000000000000002000000064
:10123000010000001BF80210280000002813000025
:101240005012000093EC02106DEB02104DEC0210F6
:1012500029E00210BDE4021099E402103100000000
:1012600000000000542300200400000000000000E3
:101270000000000010000000781D00002C0000009D
:10128000000000000000030000000E003C00000011
:1012900000000000000000002FF902101000000004
:1012A00008000000741F0000FFFFFFFFB8230020AC
:1012B0000400000000000000000000001C0000000E
:1012C000DC1E0000240000003C120000042300206B
:1012D0000400000000000000000000000C000000FE
:1012E000E81C0000180000005BA0000000000000E7
:1012F00000000000080000000100000004000000E1
:10130000000000000000130000000000B8230000EF
:1013100000001800000017002400000083A5010051
:1013200000400000000200000410000000000F0058
:1013300055F002100C0000000FD800000000000063
:10134000E422002004000000000000000000000073
:1013500020000000A81C000030000000D023000086
:1013600001000000C9D80000178D00000000000037
:1013700000001600000200002E0000000000220005
:101380000000140001000000C011000070230020C4
:101390000400000000000000000000002000000029
:1013A000281E000024000000E82300006423002021
:0813B00020000000881F00006E
:1013C00051D700005FD9000063D9000067D9000041
:1013D0006BD900006FD9000073D900000D5D0100CA
:1013E000BD5D0100C95C01001FA5010001A5010050
:1013F000955D0100A15D010051A50100F15D0100B5
:101400009D5E0100B15E0100D0B52DED048B41EC75
:10141000180B144653EC182B00206C4900F0F8F818
:1014200008BF9FED558B00F0838051EC180B544A98
:10143000544B00F0FDF81DD89FED539B53EC182B37
:1014400051EC190B00F00CF90022514B00F0DAF9C5
:1014500006460F4653EC182B51EC190B00F0D2F94D
:1014600002460B463046394600F088FA41EC180B2C
:1014700044F0010451EC180B21F0004101224FF01F
:10148000795300F0D5F853D853EC182B51EC180BC6
:1014900000F0E6F841EC190B53EC182B00F0E0F8E3
:1014A00006460F4653EC192B3A483B4900F0D8F852
:1014B0003A4A3B4B00F0A6F953EC192B00F0D0F858
:1014C000384A394B00F09EF932463B4600F0C8F8E6
:1014D00053EC182B00F096F906460F4653EC192BE7
:1014E0003248334900F0BCF8324A334B00F08AF9F5
:1014F00053EC192B00F0B4F8304A314B00F082F96C
:1015000053EC192B00F0ACF82E4A2F4B00F07AF96F
:1015100053EC192B00F0A4F800222C4B00F072F9C8
:1015200002460B463046394600F028FA41EC180BCB
:10153000A00705D551EC180B81F0004141EC180BC8
:1015400014F007020BD00FF2880303EBC20251EC38
:10155000180B5368126800F055F941EC180B20077E
:1015600005D551EC180B81F0004141EC180B51EC02
:10157000180BBDEC048BD0BD182D4454FB21E93F62
:1015800057CD9E5E1426D13FAA4C58E87AB6FB3F51
:101590000000F0BF845D57134B57B03FB2934C1916
:1015A000ED5EE43FBEDE02B90240F83FDE39028F55
:1015B000C7C0743F8AAB1283000CC83F24D7E5082C
:1015C000B6D8F03F0F34580E5895FD3F0000F03F5D
:1015D000000000000000000066732D3852C1E03F9B
:1015E000182D4454FB21F93F66732D3852C1F03F4A
:1015F000182D4454FB21F93F66732D3852C1004029
:10160000182D4454FB2109403FD038C6A6F10440B0
:1016100090420CD141EA030C50EA4C0C07D099429D
:1016200005D14FF4001C1CEB410F38BF89427047B5
:101630004FF4001C1CEB410F94BF1CEB430F09E05F
:1016400041EA030C50EA4C0C52EA0C0C03D28B42D8
:1016500008BF8242704714BF994290427047C92A1E
:10166000B0B581EA030C0CF0004C40F2FF7515EAAE
:1016700011541DBF15EA1357AC42AF4239E0E419CB
:1016800023EA455343F48013C90241F0004141EA83
:10169000505EC7021100A7FB020200284FF00000B5
:1016A000EEFB01204FF00001E3FB072118BF42F0E1
:1016B0000102401800214941E3FB0E01A4F58064BA
:1016C0000F0302D252004041494154F101046CDD44
:1016D000470872F1004250F1000051EB0451A1F5AE
:1016E00080115CBF41EA0C01B0BD4CEA05510020FD
:1016F000B0BD05EA1357AC4214BFAF4241E050EA17
:10170000410E1CBF52EA430E02E061460020B0BD0C
:1017100024423C441BD15FEA070EF6D0090302BF06
:1017200001460020AEF1140EB1FA81F7AEEB0704CA
:1017300001FA07FE0C37C7F1200100FA07F7C8408D
:101740004EEA000E23EA455343F48013A2E733F038
:101750000043B3FA83F704BFB2FA82FE77440B3F2B
:10176000E41BB7F1200E2FBF02FA0EF3BB40C7F106
:10177000200E22FA0EFE38BF43EA0E03BA40641C64
:1017800082E750EA410E14BF52EA430E6FF00001A7
:101790004FF4001717EB430F8ABF194617EB410FA1
:1017A000B5E74CEA05510020B0BDD4F10104B4F115
:1017B00020070FDAC4F12007520828BF42F00102C7
:1017C00010FA07F501FA07F7E1BF2A43E040384372
:1017D000E1400FE0352C98DCC7F1200452EA4002CA
:1017E00020FA07F218BF42F0010231FA07F0A140D7
:1017F0000A43002172F1004250F1000051EB0C014C
:10180000B0BD0A0570B44FF0004591EA030F40F1F6
:10181000E1816B40841A71EB030604D26E40001B19
:10182000B141121973414FF4001C1CEB410F34BF3E
:101830007CEB430682E00C0DA4EB1356362E7BDCCA
:10184000012E45EAC32341DC43EA525312BFD202C0
:1018500092025B08240545EAC12141EA5051D2EBCE
:10186000C020994125D407D1B0FA80F610FA06F1CC
:1018700062D00020203608E0B1FA81F6B140C6F10E
:10188000200220FA02F21143B0404FEAF474B4EBA4
:10189000465434F001064FEA74040AD8D6F500160F
:1018A000760D04F00044F04061FA06F25040F14039
:1018B0004840C00A40EA415021F0004128BF5FEA99
:1018C000500550F1000044EBD12135E0DB0A45EA38
:1018D000C121C90AB6F120050EDD42EA0242120C0E
:1018E000C5F1200603FA06F6EB4042EA06056D4212
:1018F000984161F100010DE062FA06F5F2405540B1
:1019000063FA06FC82EA0C02F3405A406D429041B1
:1019100061EB030111F4801F05D1641E620502D042
:101920006D004041494121F48011430875F10043A5
:1019300050F1000041EB045170BC70471CEB410FAB
:1019400015D223F0004352EA43060BD04FEA4C0C69
:10195000BCEB410F04D80C0D661E342EB7DDEBE74F
:10196000801A994150EA410608BF0021E4E708BF08
:101970001CEB430F28BF6FF00001DDE7F0B540F22C
:10198000FF7581EA030C0CF0004C15EA11541DBFE1
:1019900015EA1357AC42AF42E5E0BC41C1F3130175
:1019A000C3F31303801A994143F4801304D2641ED5
:1019B0004000494180185941C90241EA5051B1FBE8
:1019C000F3F603FB1611A2FB0675D7EBC020A94165
:1019D00002D2761E80185941C90241EA5051B1FB2A
:1019E000F3FE03FB1E11A2FB0E75D7EBC020A9412D
:1019F00003D2AEF1010E80185941890241EA90519B
:101A0000760546EA8E2EB1FBF3F603FB1611A2FB18
:101A10000675D7EB8020A94102D2761E8018594165
:101A2000C90241EA50514EEA060EB1FBF3F603FB40
:101A30001611A2FB0675D7EBC020A94102D2761E73
:101A400080185941C90241EA5051B1FBF3F703FB39
:101A50001711A2FB0735D3EBC020A94167F100079E
:101A60000CBF004247F0010766F3D5274FEA1E314D
:101A7000B80814F5806412DDBD0775F1004250EB23
:101A80000E5051EB045111F5801F5CBF41EA0C016F
:101A9000F0BD4CF07F6141F0E0410020F0BDBD079A
:101AA0006D0840EA0E5041F48011D4F10104B4F104
:101AB00020060ADAC4F120060200E04001FA06F32B
:101AC000E1401843B24015430EE0342C13DCC6F15C
:101AD000200445EA40056D0820FA06F2154321FA74
:101AE00006F0A1400D43002175F1004250F10000C5
:101AF00051EB0C01F0BD00205FEA0C01F0BDCFB945
:101B000092185B41B3FA83F704BFB2FA82F6BF19A9
:101B10000B3FB7F120062FBF02FA06F3BB40C7F117
:101B2000200622FA06F638BF3343BA401CB1E41946
:101B3000641E33E77F4231F00041B1FA81F404BF03
:101B4000B0FA80F6A4190B3CB4F120062FBF00FABE
:101B500006F1A140C4F1200620FA06F638BF314351
:101B6000A0403C1B1AE7AC421ABF05EA1357AF422C
:101B700012E050EA41061CBF52EA4306BFE750EAB2
:101B80004107304661461CBF41EA0551F0BD52EAAB
:101B9000430C08BFC143F0BD00204FF4001616EB04
:101BA000410F98BF16EB430F08BF16EB410F24BF40
:101BB000C14305E016EB430F0CBF61464CEA0551EB
:101BC000F0BD060370B44FF0004591EA030F7FF5B6
:101BD00021AE6B40841A71EB030603D2001BB141A6
:101BE000121973414FF4001C1CEB410F34BF7CEB06
:101BF000430442E00C0DA4EB1356352E4FDC45EAAE
:101C0000C323DB0A45EAC121C912B6F120050DDD67
:101C100063FA05F6EB4086EA0305124218BF45F069
:101C20000105C01851F100010CD213E062FA06F56B
:101C3000F2405540F3415A40B340F3405A408018B7
:101C4000594107D349085FEA30005FEA350528BFEC
:101C500045F0010501F58011420875F1004250F18F
:101C6000000041EB04514E0016F5001F70BC38BF58
:101C700070470020090D090570471CEB410F10D279
:101C800052EA43060BD0BCEB410F05D80C0DAB4319
:101C9000661E342EB6DD02E0AB438018594170BC9D
:101CA000704770BC70470603300000000000000061
:101CB00000000000D01C0000040000000000000034
:101CC00001000000FFFFFFFFFF0000000100000017
:101CD00008000000000000000000000000000000FC
:101CE00025EA0210D5C9021018000000000000000B
:101CF00000000000F81C00000800000000000000C8
:101D00001000000028130000181D00007FA501002E
:101D100065DB0000F9DB000097D90000EBD900007B
:101D200077D9000032000000041D00004C23002081
:101D3000040000000000000000000000200000007F
:101D4000481D0000180000001800000000000000FE
:101D500000000000581D0000080000000000000006
:101D6000180000000000000000000000701D0000CE
:101D700008000000000000002C000000000000002F
:101D8000000000009C1D0000040000000000000096
:101D900001000000FFFFFFFFFFFFFFFF0800000042
:101DA00000000000B0110000BC1D00004D5E0100ED
:101DB0005D5E0100795E01006D5E010035DA0000B4
:101DC0005FDA00000BDA00002F000000A41D000005
:101DD0005C23002004000000000000000000000060
:101DE00014000000EC1D00001C0000001C0000009E
:101DF0000000000000000000001E000000000000C5
:101E00000800000000000000010000006B810000DD
:101E10007BA50100B76E00006F8100007381000098
:101E20005F8100007D8100002400000000000000B0
:101E300000000000441E0000000000000000000040
:101E40000000000008000000000000002400000066
:101E50000000000000000000681E000000000000FC
:101E6000000000000000000008000000000000006A
:101E70000A00000018000000000000000000000040
:101E8000841E00000800000000000000C5A1000042
:101E9000340000000000000000000000BC1E000034
:101EA0000000000000000000010000000000000031
:101EB0000100000000000000000000000800000019
:101EC00000000000180000000000000000000000FA
:101ED000D41E0000080000000000000024000000E4
:101EE0000000000000000000F81E000000000000DC
:101EF00001000000000000000800000000000000D9
:101F0000280000000000000000000000201F00006A
:101F10000000000000000000FFFFFFFF00000000C5
:101F200008000000000000003C000000000000006D
:101F3000000000005C1F0000000000000000000026
:101F40000100000000000000000000000000000090
:101F50000000000001000000000000000800000078
:101F60000000000047D9000025DD021031C8021032
:101F700075DF0210010000000000000000000000FA
:101F8000000001000000010015F9021001E6021036
:101F90002DDA021045E7021041D10210C9D3021018
:101FA000A5DF02102DE4021061EA0210095E0100B3
:101FB000EBC706EEC906F1880CF48A10F78D0AFA11
:101FC0004D20FD5128005934015C38020D440311A5
:101FD0005404166C051E9400B01F00000D0700008D
:101FE000E508010065B2000065B2000065B20000BE
:101FF00065B20000B10C0100CF0C010065B2000019
:10200000E90C0100190D01001F0D0100C30E0100B4
:1020100065B20000DB0E0100D9090100250D0100A9
:102020004D0D0100B10E0100410F010065B200002D
:102030003510010065B2000065B20000390A0100E8
:10204000890C010065B2000045E10000B7E1000025
:102050000FE2000071E0000083E0000077E3000081
:102060007BE30000F1E4000063E50000BBE5000055
:1020700055E4000067E40000FDE6000001E7000011
:10208000BBA40100C7A4010025EA021061DB021015
:102090000805450303100A00345100203851002080
:1020A0003A0100000000000000000000C01D0020F8
:1020B000781B00200000000000000000000000006D
:1020C000E01F00009822000048200000B822000015
:1020D00088200000000000003C51002000000000AB
:1020E000681B00206C1B0020701B0020741B00204C
:1020F000D81F0000FF0000001C4B0020F42000004F
:1021000001FF00003C4B00200121000001FF000006
:10211000544B00200D2100000100000000000000D1
:1021200000C20100FFFFFFFF784B0020800000008D
:10213000C82400006C4B00201C210000010000009E
:102140009C1B0020F84B00200C0000000400000045
:10215000FFFFFFFF0080040000400000E8240000B3
:10216000373300205421000001000000FF00000070
:102170000000000000000000C1B5000027A700001B
:1021800001010100FF00010000000000000000004C
:102190000000004017FF0000000000000400FF00E6
:1021A000080000001000000009080AFF0A000000F3
:1021B0000080004018FF0000000000000500FF0044
:1021C0000000010000000200FFFFFFFF0A00000006
:1021D00010250000084C0020902100001025000070
:1021E000DC4C0020B0210000020000000010004084
:1021F0000600000015000000FF00000000000000C5
:102200000302FFFF00500020200000000103000037
:102210000000000000B00040140000003400000086
:10222000FF00000000000000FFFFFFFF2050002023
:10223000200000000103000000000000282500002D
:10224000B04D0020EC21000028250000D84E0020D1
:102250001422000002000000000002400A29FF00D2
:10226000405000205822000008000000C8560020FE
:102270006822000000000000000000000A18232A65
:10228000242A252A262A272A282A292A2A2A502A9D
:10229000020000007C220000916301000364010041
:1022A000136401006B64010087A501008DA5010086
:1022B000CB6401003565010059DF00007BDF0000C1
:1022C00095DF000049850000DB840000E785000001
:1022D0002D8600004D86000075840000FD850000FD
:1022E0008F850000D9860000CD84000003870000A0
:1022F000F7860000E5860000418500004385000068
:10230000178900004785000045850000F0FFF1FFB8
:10231000F2FFF3FFF4FFF5FFF6FF000002000000FC
:102320000C230000576F726B2077697468000000FF
:10233000536574204175746F436F6E6E65637400EE
:1023400044697361626C650047726F75702041006B
:1023500047726F757020420053657420436F6E6E34
:102360002050485920507265666572656E6365003D
:1023700031204D627073000032204D627073000096
:102380003120262032204D6270730000436F646557
:10239000640000003120262032204D6270732C2012
:1023A0002620436F646564004175746F205048595E
:1023B000206368616E6765007B7374617469632D67
:1023C000696E7374616E63652D6E616D657D00006D
:1023D0007B656D7074792D696E7374616E63652DA4
:1023E0006E616D657D0000007B756E6B6E6F776E44
:1023F0002D696E7374616E63652D6E616D657D0010
:1024000096C298D84539A1F4A033EB2D817D03778E
:10241000F240A463E5E6BCF847422CE1F2D1176B29
:10242000F551BF376840B6CBCE5E316B5733CE2BFC
:10243000169E0F7C4AEBE78E9B7F1AFEE242E34F2B
:10244000FFFFFFFFFFFFFFFFFFFFFFFF0000000098
:10245000000000000000000001000000FFFFFFFF7F
:10246000FCFFFFFFFFFFFFFFFFFFFFFF000000007B
:10247000000000000000000001000000FFFFFFFF5F
:102480004B60D2273E3CCE3BF6B053CCB0061D6528
:10249000BC86987655BDEBB3E7933AAAD835C65AB1
:1024A000512563FCC2CAB9F3849E17A7ADFAE6BCF6
:1024B000FFFFFFFFFFFFFFFF00000000FFFFFFFF28
:1024C00097EC00003DED0000A5110100A7110100EF
:1024D000251201004D120100E11201007D130100DF
:1024E000951301009B130100D9140100E1140100B0
:1024F000E714010017150100311501007F150100D7
:10250000971501000B160100491601005116010034
:1025100011190100671901003B1C0100451C010055
:10252000C31D0100E51F0100B52C01003D2D010078
:10253000652B0100752B0100452F0100873001003C
:102540008D300100A12D01009B2E0100A12E010064
:10255000020000006CCD00003031323334353637A4
:1025600038396162636465660000000002000000A3
:1025700000000000FFFFFFFF00000000020000005D
:1025800068CD000097A5010039700100000000002F
:10259000D7560020DA560020D9560020DB560020FE
:1025A000D856002064330000A8560020AC27002035
:1025B000DE560020DF560020D5270020D627002039
:1025C00070CD000074CD000094CD00007CCD0000E3
:1025D00078CD0000E5A70100FBA0000079410100D3
:1025E0007D410100013401002D38010085400100CA
:1025F000213D01004D6801000D3D01003D38010005
:10260000533601003536010085340100F1360100F2
:1026100099710100BDA7010047AC00004BAB000061
:10262000DD590100757301006174010061750100DD
:1026300071360100615B0100CD5B0100F1A7010073
:1026400045A80100F9730100FD7201001972010033
:10265000B17201005547010041440100D56A0210E2
:102660002D920110A1F101104D0A0210495E0210D5
:10267000D175010049AA0110D52A021075D40110A4
:10268000DD750100794B0110154B02100515021084
:1026900013B10000217A0110514D0210F5E2011032
:1026A000E1230210010A0210E9750100A5230210BE
:1026B00081CF011045FB0110994B0210955102107A
:1026C000C537021091370210911D0210A10E0210A1
:1026D0002D380210796E0210816E0210756E021094
:1026E0005D4502107D6E02102553021061590210E3
:1026F000AD520210FD520210D5520210895E021036
:1027000019550110A5D60110E5C00010756D021015
:102710002D690210493F021099C50110356B021056
:10272000057701009DC4001011EC00108511011007
:10273000456B02103D6C0110D9CA0110ED26021044
:1027400021A10110716F011005550210E13E021028
:10275000D96D011061500110F117021031A801006C
:10276000ED7F011075660210DD7A01107D4D0210BB
:10277000D9260110ADFF0010BD66021059E301100B
:10278000659A011065A70110D9AA011039BF01107F
:1027900011F30110515C0110155A0210D11E0210E4
:1027A000AD2D021005560110156B0210B18301000A
:1027B000DD540210056B0210AD460210FD470210F9
:1027C0003D2D0210F159021065270210CD4702106D
:1027D000310F021059A80100E9DA0110F9B0011017
:1027E00021DE011069B60110E9C90110B5F201102E
:1027F000790F0210295F0210418A011085EC011047
:102800002D5401102927021025890100FD750100B2
:1028100031A8010031A8010031A80100950402107F
:10282000D131011045ED0110052D021031A8010034
:1028300031A8010031A80100D53C0110B5540210A7
:10284000A56E011061CA011091FD01103DFD01103E
:10285000918F0110B5A9011015E60110ED66021067
:1028600055690210A15B0210A16202107D4902109D
:102870003D2F0210696002102D4E0210956E02105D
:10288000996E02105D5A0210E5F6011031A80100A0
:10289000311601103D5301102D450110A96E021093
:1028A000ED8A0110AD6E0210A56E021031A8010074
:1028B00031A8010031A801005D480210395A021008
:1028C000B16E0210014E0210E9FC011045F1011039
:1028D000A55A0210AD170210A16E02108DA80110AA
:1028E000256B02108D6602109D6E02106917021092
:1028F000815A0210E56B021081A301105555021098
:10290000A127021059510110B9110210F5550210FA
:102910000112021039D20110DD4E0210BD62021008
:10292000DD490210459C0110EDF7011091A801004E
:10293000616C021051340210656E0210696E021053
:10294000DD4302106D6B01102D480210C10F021003
:10295000F9A701108DF6011089DE011069620210DD
:102960007D430210511B0210BD180210F10C021021
:10297000816D0210059B0110E110021015C60110B7
:102980002D5502101D620110153F0210294401103F
:10299000B1E501102D860110BD940110A11A01109E
:1029A000C13B0110418E011019690210E5EC0110C4
:1029B000752D0210315D0110BDE30110559F01100E
:1029C000E50A0210752F0210B9CC0110B14E0210A9
:1029D000310B021055DB0110CDB401106DF3011065
:1029E0000D680210DD670210056702102911021040
:1029F00019400210D11F0210AD2F0210854E021097
:102A0000658201006D7A010061D801108D5A0110B4
:102A100051FD0010199401108D2E0210AD490210C5
:102A200089AC0110C55B0210DDD00110A17D010051
:102A3000892F011065790100C52E021085620210F0
:102A4000C95F0210D17D010029E00110818B0100D6
:102A500019280210791802103518021039C0011017
:102A6000ED480210416902107D550210ED6D021013
:102A7000CD550210695F02107D1D011031A80100C3
:102A8000B517011031A8010059DF0110E57D0100E3
:102A900039810100B9C001105D880100E53F0210D5
:102AA000A5810100917D010089420210217F010072
:102AB000857D0100E95F02103D8B010031A8010016
:102AC000856B0210A5ED01104DE50110810102108A
:102AD000A95F0210DD27021021420210BD4802103A
:102AE000E5040210656B0210058B0100DD8D01000D
:102AF0001D49021055420210D56602102DE2011048
:102B0000556B0210A5660210511F0210CD1902105C
:102B100025930010F9AB01100D9A0010111F02103F
:102B200029B30110A5550210A180011011B20110A6
:102B3000E98E0110557B0100B1810100895F02100F
:102B400051CB011095F7011005EE011099100210FC
:102B500021E4011031A80100AD430210552E0210EE
:102B6000117D0110C97D0110A95901102D770110A7
:102B700055810110C9AF00104DEE0010ED68011035
:102B80001568011099D900102DF9001099BA01109B
:102B9000B9BF011031A801001D34021081F00010EE
:102BA000AD8E0100E9E40110C9CB0110557C011084
:102BB00091E00110F9E00110818D0100350502104E
:102BC00051D1011031A80100C1EE011051100210C5
:102BD00085E4011041CC0110C1DF01109DB201104C
:102BE0007D850110F1B60110B13F0210096002109D
:102BF000416E02101DC5011041B4011001190210EF
:102C0000B5B3011021A90110CD84011025EC0110EC
:102C10003907011069D001105D6602103D540210A1
:102C2000911E021045660210CD5902108D540210FB
:102C3000952C021065540210AD3E0210516D021029
:102C4000D54D021015540210D1200210A5310210EA
:102C5000C56B0210C95E021069AB0110E95E02107B
:102C6000A93D0210396D021085590210211302107E
:102C70007D5B021045290210DD46021085B101106E
:102C800025170210DD6802104504021035D6011028
:102C9000C5EB0110D56B0210A94D02100569021099
:102CA000D5630110B99E0110113E0210B126021029
:102CB0005D2C02106D470210F56A021035F6011006
:102CC000A1C40110A5EA01105916021025C4011073
:102CD00095670210F1680210FDF1011079070110EB
:102CE000F9220110D192011015BA011051A2011060
:102CF000DDF50110EDFB01101D840110A959021032
:102D00004D620210ED5302103D4702109D16021055
:102D1000E1160210DD3D021065EB0110111E0210DC
:102D200075930110FD650210511E0210A1210110C2
:102D30006913021059F20110595B0210990A02102E
:102D400031470110355B0210156602103148011041
:102D5000793E0210F5CF011011DA01103D67011024
:102D6000453E0210E9A20110DD31021005EB011011
:102D70002D66021065670210A56B0210196E021015
:102D8000B9630210E169021019610210596E021054
:102D9000556A0210456A02105D6E0210556E0210EF
:102DA000F5D70110E9330210E95C0210111A021084
:102DB00045510210C95C0210E16002104D21021061
:102DC000511A0210695C0210610C02104D4302108E
:102DD0004D33021019330210496002107D64021055
:102DE000CD690210ED5A021025060210AD570210EF
:102DF000C1DB01101D430210115B0210F51302101C
:102E0000295D0210AD640210ED500210153202105F
:102E1000E5320210A95C02107D320210ED42021070
:102E2000D11A0210BD420210911A0210892102101B
:102E3000B1320210895C021049320210316C02106A
:102E4000256C0210F529021065EE0110C560021014
:102E500065730110111B02105D3702106DB0011077
:102E6000295E0210C90D021005D40110BD820110A7
:102E7000819D0110F9C801103D590210C161021075
:102E8000556502101D390100793A010075A601004F
:102E900085980110A5030210D1580210990C011059
:102EA0003D4402109D440210DD6102109DFA0110A4
:102EB000F5360210D9A50110E1B501106D6E0210B2
:102EC000716E021059360210252D0110F503021003
:102ED0008D36021009A70100B9BD011065790110F6
:102EE0006D65021099A701002BA70100216D02104A
:102EF000156D0210F9610210E94A021025990110BE
:102F000029370210F5580210F50F01101562021052
:102F1000E95D02108565021019590210095E021060
:102F2000A56102101134011045A501100DB9011061
:102F300039D901102D35011051DD0110B1C2011038
:102F40009D720110958901108DF0011055AF01108F
:102F500085F50110C114021069090210CDD80110C5
:102F600089A0011085080210D10802101D09021065
:102F7000253602103DA6011039400100E53F010051
:102F8000D1A60110E5650210CD4402109D65021026
:102F90000D6D0110CD38010071C90110111C011017
:102FA00065660110093B0100998D01106939010026
:102FB000413D010049240110F18C0110B93E01008E
:102FC000293F0100D3A40100C5990110911B0210F3
:102FD000156E0100C5210210316E021021BD0110D5
:102FE000D11B02106D610210C56A0210B9C1011037
:102FF00005E8011025E9011039140210ED34021022
:10300000D957011093A5010031460110E5E90110DF
:10301000111D021055030210E5970110B56C021046
:103020009D6C0210A96C0210396E0210496E0210DC
:103030002135021025F40110A1BB0110B5020210C8
:10304000895D0210D5710110654A0210390D021018
:103050007D38011095D301108991011035C20110FE
:103060003D220210C16C0210CD6C0210050302104B
:103070005507021021BC0110BD06021009070210FD
:10308000394A02102143011099CE011065E8011060
:10309000AD580210A5E70110756A0210956A02107A
:1030A000856A0210A56A0210F564021089350210C3
:1030B0000D650210D5EF0110A1BC0110A10702108F
:1030C000DD6E0210B1640110D96E02100D410110C5
:1030D000DD8601100140011005C801104D400210AD
:1030E00085D70110F5F80110E52B01109DF80110AE
:1030F000097101101D670210F5620210812902108A
:10310000D962021069690210B540021081400210B4
:10311000150C021079480110A5140110754C01100E
:1031200035090110592E0110714D011089FF011050
:10313000256802107D69021045190210354F0210F2
:103140008500021089C701108D870110794901108F
:103150001D300210458C0110DDFF011055300210AA
:10316000619501104556021011200210C90B021082
:103170001DBB011011630210E94002102D63021003
:10318000FD30021049630210F1320110F15E0110AE
:1031900061E10110A56D021009F700108D300210D9
:1031A000C5300210094F0210CD280210D5050210BB
:1031B000DDE6011029600210912802105120021052
:1031C0003100021049360110911202106D4E0110AB
:1031D000A9CD0110D900021041E70110D912021047
:1031E00021CE011019A4011001B8011051410210A3
:1031F000A52A01101D41021045F80110B94F021017
:1032000011500210E54F021085410210614F02106B
:103210009550021035670210092902108D4F0210D7
:1032200081630210098201109D630210355702105C
:1032300069500210BD5602103D500210E5560210B2
:10324000A5690210B94102106D560210C95A021048
:1032500089600210353102101D5602109556021079
:10326000C15801105D5702100D570210C9F301102B
:10327000E53D0110998B0110ADD20110E52F021030
:1032800031A80100E5FD011021D3011049120210FF
:1032900079E6011039FE011039C101100DC7011086
:1032A00045FB0010794A0110B1F200106160011075
:1032B00011A20100996D02107D0B0210115E011028
:1032C00085E901107D140210810D02103D88011066
:1032D0002D2A0210ED7701108D65011069DC0010B8
:1032E000715B0110914A021031F00110A95D0210CA
:1032F000652901105535021001220210694F011095
:10330000B934021065020210695D0210BD8401002B
:103310009D75010029720100B9A101100DCF0110A6
:10332000817E01102D23021021340100616C010007
:103330003DA301000000000002000000FFFFFFFFAE
:103340001D8E0100FF00000000000000006162000F
:103350004C330000010000000000D002EC0000210E
:103360005F00000000000000000000005C3300006F
:10337000583300000000000002180000C21B0000CB
:10338000A61C0000DE5000002A5200002EBE0000E5
:103390002FBE000060330000AA520000426E000001
:1033A0005C2700200C0802170D0101020909010128
:1033B00006020918180301010909030305030000A7
:1033C0000000000002000000FFFFFFFF01020003F9
:1033D0000200010310B5DFF86017CA684B694C683A
:1033E000D318A34206D28B6843F82200C868401C59
:1033F000C86010BD6FF003028A6110BD38B5DFF8F8
:1034000038371C695B69C0F38700002200E0521C5A
:103410009A4206D214F82250A842F8D10A6000203D
:1034200032BD6FF0060032BD10B5DFF80C375C69B5
:10343000DA6814195A6894420FD21A69121F1A6175
:103440008008146860F307041460107840EA0120D3
:1034500010605869401C586110BD6FF003019961FC
:1034600010BD02290CD3DFF8D0269060516000EB2C
:103470008100011F11610021D160516191611170C2
:103480007047DFF8B42608B19368036009B1D068CB
:10349000086090697047DFF8A01618B10020C86076
:1034A000886101200870704750B5002400E0641C5A
:1034B000944205DA0E5DB042F9D11C70012050BD76
:1034C000002050BD1CB50C46C16801290ED1016811
:1034D00002290FD040680FF2500100F07AF810B3C3
:1034E0009DF800000FF248010A5C1BE0D9B90168A1
:1034F00002290AD040680FF240016B46052200F015
:103500006AF880B10FF2380009E040680FF2380124
:103510006B46032200F05FF828B10FF230009DF8EF
:103520000010425C59E05BE003040506080A000055
:10353000120C060504030000050708090B00000033
:103540000F0C0A0906000000090A0B00120F0C00FC
:103550001CB50C46C16801290ED1016802290FD0A3
:1035600040680FF2500100F034F810B39DF80000ED
:103570000FF248010A5C1BE0D9B9016802290AD0A0
:1035800040680FF240016B46022200F024F880B13F
:103590000FF2340009E040680FF230016B4602225E
:1035A00000F019F828B10FF228009DF80010425CD5
:1035B00013E015E003040507090B00000F0A0504DA
:1035C00003020000070B00000A050000090B0000C1
:1035D0000F0A6B460622C0B266E72270012016BDB4
:1035E0000020207016BD000078B587B004460D4657
:1035F0000020002C009018BF002D286000F099805A
:10360000E0680C2804D2A168022901D82269042AA2
:1036100080F08F8026681423042E28D8DFE806F077
:10362000031028643C006068D4ED070A434300EEB1
:10363000103AB8EE400A20EE200ABCEEC00A14E0B0
:103640000FF2F400626850F82100D4ED070A921CD2
:103650004243521C534300EE103AB8EE400AB6EE15
:10366000001A00EE201ABCEEC10A8DED000A5EE0E1
:103670000FF2D402616852F82000491C4143491CF2
:103680000091012121606946009800F077F802203E
:10369000206000980F3049E0207E05900026A06849
:1036A000029002A8E16803910DF10501FFF70AFFFE
:1036B00018B19DF80500461EF6B201A902A8FFF751
:1036C00047FF20B19DF804008619761EF6B202214C
:1036D000216069466068301800F050F804202060CE
:1036E0006068861B666022E0606903281AD8DFE8FC
:1036F00000F00604020D002006E0012004E0607ED8
:10370000002814BF02200420206008E0012020606F
:1037100001216068521C01FA02F24243626069466C
:1037200000F02DF8032020600098193000900098D8
:10373000286008B070BD0000050000000400000013
:103740000200000000000000160000002C00000035
:1037500059000000B20000000B010000150200003B
:10376000800200009B02000020030000790300009B
:103770002B040000350500000000000060602046BA
:1037800032E701F0A9BC0000A0F50040491E00EEA0
:10379000900A0329F8EEE00A12D8DFE801F00205EA
:1037A000080DB7EE081A09E0B6EE001A01E0B5EE12
:1037B000001A60EE810A03E0B2EE021AC0EE810A3E
:1037C00020EE800ADFED350A20EE200A9FED341A44
:1037D00020EE010A7047D1ED000A90ED003A91ED1C
:1037E000010AD0ED012AF8EEE00AB8EEC33AB8EECD
:1037F000C00A20EEA02AF8EEE22A63EE203A62EE3A
:10380000A00A00EE002A42EE803A43EE400AC3EEE0
:10381000823A80EE820AB0EE631AF0EE401AB0EE01
:10382000410AF0EE610A704780B5D0ED000A90EDD4
:10383000010A60EEA00A40EE000A10EE900A01F0C4
:103840004FFC41EC100B01F06FFC51EC100B01F040
:10385000EDFC00EE100A01BD10B504462DED028B03
:10386000206801F03DFC41EC110B6068B0EE418A2C
:10387000F0EE618A01F034FC41EC100BB0EE481A16
:10388000F0EE681A01F009FD51EC100B01F0CEFCCE
:10389000BDEC028B00EE100A10BD000000000038E5
:1038A000110E813F80B58DF80100012269460DF1AE
:1038B000010001F029FD9DF8000002BD80B5010A5C
:1038C0008DF802108DF80300022269460DF1020006
:1038D00001F01AFD9DF800109DF8010040EA01205A
:1038E00002BDE0B5010E8DF80410020C01A94A706A
:1038F000020A8A70C8700422694601A801F004FD1A
:103900009DF801009DF800209DF80310000440EA96
:1039100002609DF8022040EA022008430EBD10B567
:10392000044601F07BFE2020FFF7BCFF2046FFF796
:10393000C5FF01F078FE01F071FE6D20FFF7B2FFC8
:103940000020FFF7AFFFA4F5805442F21500844237
:1039500003D20020FFF7C5FF02E00020FFF7AEFF13
:10396000044601F060FE204610BD70B50E46032EE1
:1039700005461ED201F052FE2020FFF793FF42F2CF
:103980006C00FFF79BFF01F04EFE0024B44236D2DC
:1039900001F044FE6D20FFF785FF0020FFF782FF56
:1039A0000020FFF79EFF45F82400641C01F03BFE59
:1039B000ECE701F033FE5F20FFF774FF06240020E0
:1039C000FFF770FF641EFAD1B61E05E00020FFF776
:1039D00088FF45F82400641CB442F7D34FF044300C
:1039E000FFF77FFF45F824004FF04430FFF779FFE1
:1039F00005EB84014860BDE8704001F014BE70BD65
:103A0000F8B5DFF8A0560746287801280C4623D1E0
:103A1000B7F5085F03DB6FF00401A961F1BDB808D9
:103A200024F07F46694646EA00663846FFF7E6FC22
:103A300046F0004640B92869009910F8212042EA72
:103A4000042240F8212003E021463846FFF7ECFC31
:103A50003046FFF7BFFCF1BD01F0E0FD2020FFF78D
:103A600021FF3846FFF72AFF01F0DDFD01F0D6FD0A
:103A70002D20FFF717FFA7F5805142F21500814274
:103A800003D22046FFF72DFF02E0A0B2FFF716FF9A
:103A900001F0C9FDF1BD000038B5DFF80856044655
:103AA0002878012814D169462046FFF7A7FC40B1C9
:103AB0002046FFF734FF054629462046FFF7B4FCB1
:103AC00004E02869009950F821502D0A284632BD9B
:103AD0002046FFF724FF32BD38B5202001F0EAFB75
:103AE00015480FF258050021C160416181610170E4
:103AF000002401F098FD281D50F8341035F83400EA
:103B0000FFF77EFF641C0E2CF5D340F20440FFF754
:103B1000C3FFDFF89415088045F2015290421ABFA6
:103B200045F202529042012003D0B0F5AA4F02D1D3
:103B300000200871887031BD143100200809000090
:103B4000C9020000080C00006C200000F0210000F9
:103B50001000000010040000C9020000280A000044
:103B6000090000008C23000004010000040A00008A
:103B700059480000040A00007BF20000000A00001F
:103B800009800000F0220000000000003022000048
:103B9000AFA587DE502200003F100000B0220000D9
:103BA0003C20000030220000A0A587DE38B5044686
:103BB0000D464FF40050FFF76FFF012D24F0200158
:103BC0000CD1A20644BF20F020000C46210344BFC4
:103BD00020F4002024F4002404430CE0A20644BF97
:103BE00040F020000C46210344BF40F4002024F4A0
:103BF000002420EA04042146BDE834404EE240EAB5
:103C0000810142F2F020FBE610B500F040FA227884
:103C100020F020010AB941F020014FF40050FFF7D5
:103C2000EFFE4FF40650FFF737FF61780129A178C6
:103C300008BF40F001000129E17808BF40F0100002
:103C40000129217908BF40F004000129617A08BFE9
:103C500040F020000129A17A08BF40F480700129BA
:103C6000E17A08BF40F002000129217B08BF40F043
:103C70000800012908BF40F0400001464FF40650FB
:103C8000FFF7BEFEA079002100B90221607908B9D2
:103C900041F00101E079BDE81040012808BF41F082
:103CA000040142F25000ABE610B5044604F11000E6
:103CB00000F029F804F1500000F038F8204600F038
:103CC00005F804F11C00BDE8104073E010B504468F
:103CD00042F250102168FFF793FE616842F25810DB
:103CE000FFF78EFEA16842F25410FFF789FEE168EB
:103CF00042F25C10FFF784FEBDE810404FF48031C3
:103D000042F20C007CE602680021012A426808BFEA
:103D10004FF48051012A826808BF41F0010152002E
:103D200002F4FF72114342F2100069E610B504007C
:103D300000D130E22069032804D30B289CBF6069BE
:103D4000052802D96FF0010010BD216842F2FC0085
:103D5000FFF756FEA068616841EA4011207B012808
:103D600008BF41F0100142F2F000FFF749FE206960
:103D700061690B280DD2032828BF083007D2052916
:103D800007D20FF2200200EB80001044405CC0001C
:103D900000E0F820014342F2F800FFF731FE002076
:103DA00010BD000000010203060304050607070713
:103DB00009090A0010B504462068022812D1216AB8
:103DC00042F23000FFF71CFE616A42F23C00FFF74E
:103DD00017FEA16A42F23800FFF712FEE16A42F2D2
:103DE000340021E003281CD1A16842F21800FFF73B
:103DF00007FEE16842F21C00FFF702FE216942F271
:103E00002000FFF7FDFD616942F22800FFF7F8FD91
:103E1000A16942F22400FFF7F3FDE16942F22C00B0
:103E200002E0216B42F24800FFF7EAFD20792268A8
:103E300000210128607908BF20210128BDE8104039
:103E400008BF41F0100141EA420142F21400D7E5F7
:103E5000954810B51A242DED028B0179F0EE608A99
:103E6000012908BF1E24F5EE408AF1EE10FAB0EEEB
:103E7000408A08BF00201DD001200021224602F008
:103E8000CFFF02F0DFFF00EE100A20EE080A80EEFE
:103E9000280AF6EE000A30EE200ABCEEC00A1A2C00
:103EA00010EE101A0CBFDFF8DC096FF07F4088427B
:103EB00088BF0846BDEC028B10BD10B5044600F06B
:103EC00005F804F12000BDE8104047E010B50446B5
:103ED000A16860686269090141EA8011E06841EA0D
:103EE000C001207E41EA820108B941F00101627EF1
:103EF0000AB941F00201206870B942F22810FFF7B8
:103F00007FFDA18B608BC9B200F015F8216941F0EB
:103F1000200142F224100DE042F23410FFF770FD50
:103F2000A18B608BC9B200F010F8216941F020012B
:103F300042F230103DE000BF01F03F01C0F30B0042
:103F400040EA013142F220105AE501F03F01C0F38E
:103F50000B0040EA013142F22C1051E510B5044645
:103F60000021207E00B90221607E08B941F00101E4
:103F70002069A268636804280CBF41F0040141EA8B
:103F8000C001E068920242EA401242EA43322068ED
:103F9000114338B942F2EC00FFF732FD616942F299
:103FA000E40006E042F2E800FFF72AFD616942F210
:103FB000E000BDE8104023E510B5044600F035F8F8
:103FC00004F10C0000F03BF804F1200000F06EF862
:103FD00004F1280000F091F804F13400BDE810402D
:103FE0007CE0000080B5002106281CD8DFE800F046
:103FF00004070A0D1013160042F2740010E04FF48B
:1040000002500DE042F284000AE042F2780007E03C
:1040100042F27C0004E042F2C81001E04FF4075085
:10402000FFF73AFD0146084602BD01684268836811
:1040300041EA022141EA034142F2A810E0E438B526
:10404000044642F2440500F0EDF800F08001E0681B
:1040500022680143207C0128607C08BF41F01001E8
:104060000128606808BF41F0400141EA0021A068D2
:1040700041EA023141EA803100F0D9F8A07C28B150
:10408000BDE8344001214FF480308FE531BD044656
:104090004FF4005000E5BDE8104001464FF40050D9
:1040A000AEE40000143100203033002010B5044687
:1040B00042F2A8002188FFF7A3FC618842F2AC001D
:1040C000FFF79EFCA18842F2B000FFF799FCE1885F
:1040D000BDE8104042F2B400FFF792BC027A0368D8
:1040E0000021012A426808BF012141EA021141EA88
:1040F000C31142F2C410FFF783BC70B5044642F20C
:10410000440600F045F8014660680025032804D104
:1041100041F0800100F0D2FA05E021F0800100F0CA
:10412000CDFA65682D052068217A45EA0015012938
:1041300008BF45F001052946BDE8704042F2D000B5
:10414000FFF75EBC70B5044642F20805002100F09E
:104150006EF842F2D81600F01BF800F03F016068DC
:10416000A26841EA402141EA821100F0A7FA2169E0
:10417000090442F2E010FFF743FC207800210128F7
:10418000E06808BF4FF4006141EA40312846AAE2E6
:104190003046FFF781BC6FF0020010BD00220129FC
:1041A00008BF4FF4006242EA403142F20800FFF7D4
:1041B00027BC80B54FF40850FFF76EFC000C02BD21
:1041C000F8B5044642F2080500F02CF80646002136
:1041D00000F02DF842F2D8173846FFF75DFC810950
:1041E000206840EA811141F0080100F072F8E0799E
:1041F00042F2040730B100F04BFB002142F26400B0
:10420000FFF7FEFB207900210128A06808BF0121EB
:1042100041EA002100F05DF831462846BDE8F4404F
:10422000FFF7EEBB2846FFF737BC4FF40061284686
:10423000FFF7E6BB10B5040000D1ACE742F2D8109E
:10424000FFF72AFC00F0070020600020E07142F236
:104250000400FFF721FC00F00101C0F30720A0607B
:104260002171002010BD38B5044642F20405FFF765
:10427000D9FF012C0EBF40F001004008400001466C
:104280002846BDE83440FFF7BBBB0146042906D2EF
:10429000012000FA01F14FF48660FFF7B1BB7047CF
:1042A0002DE9F04104460D46164642F2700742F2EF
:1042B000D41808E021464046FFF7A2FB55F8041B3E
:1042C00000F007F8641C3046461E0028F2D1BDE815
:1042D000F0813846FFF794BB0000000010B504469B
:1042E000206803281AD8DFE800F002070E1300F058
:1042F0001FF842F2CC100FE0A268616841EA024167
:1043000042F2E81008E000F013F842F2D01003E0A7
:1043100000F00EF842F2E410FFF772FB207B012858
:1043200005D1A26821696068BDE81040B8E710BDFA
:10433000A068616841EA004170470000014642F20E
:104340005400FFF75DBB42F26800FFF7A5BB10B554
:10435000044640F60800616B89B2FFF751FB606BC1
:10436000C0F3034140F60C00FFF74AFB616A89B2D3
:104370004FF40160FFF744FB606AC0F3034140F66D
:104380001400FFF73DFBA16B89B240F61800FFF760
:1043900037FBA06BC0F3034140F61C00FFF730FB76
:1043A000A16A89B24FF40260FFF72AFBA06AC0F34A
:1043B000034140F62400FFF723FBE16B89B240F68E
:1043C0002800FFF71DFBE06BC0F3034140F62C0013
:1043D000FFF716FBE16A89B24FF40360FFF710FBA9
:1043E000E06AC0F3034140F63400FFF709FB216C9B
:1043F00089B240F63800FFF703FB206CC0F303419D
:1044000040F63C00FFF7FCFA216B89B24FF40460E0
:10441000FFF7F6FA206BC0F3034140F64400FFF7C4
:10442000EFFA012140F61C20FFF7EAFAA068217993
:10443000800001F0030100F00C000143E06800017E
:1044400000F0300001432069800100F0C00001430A
:104450006069000200F440700143A069800200F42A
:1044600040600143E069000300F440500143206ACA
:10447000800300F44040014340F60400FFF7C0FA17
:1044800094F84400226800210128BDE8104008BFCC
:10449000012141EA42010FE010B504464FF40060EB
:1044A000FFF7FAFA4FF6FE710840012C08BF40F002
:1044B0000100BDE8104001464FF40060FFF7A0BACC
:1044C000000000007CB50B4603289CB291B2C3F3F8
:1044D0000345C2F303464ED8DFE800F00217293B3C
:1044E00040F60800FFF78CFA314640F60C00FFF763
:1044F00087FA21464FF40160FFF782FA294640F619
:104500001400FFF77DFA002076BD40F61800FFF793
:1045100077FA314640F61C00FFF772FA21464FF455
:104520000260FFF76DFA294640F62400E9E740F6FD
:104530002800FFF765FA314640F62C00FFF760FAD5
:1045400021464FF40360FFF75BFA294640F634003A
:10455000D7E740F63800FFF753FA314640F63C0003
:10456000FFF74EFA21464FF40460FFF749FA294657
:1045700040F64400C5E76FF0010076BDF8B5074688
:1045800000F097F80646F87C012840F60C244CF61B
:10459000143509D100F069FC46F0040600F04FF82C
:1045A00000F087F84005FBD5387C01280FD100F0DA
:1045B0005CFC46F0020600F042F800F07AF8800554
:1045C000FBD5787C012818BF002000F03DF8B87CAE
:1045D000012809D100F049FC46F0010600F02FF84F
:1045E00000F067F8C005FBD5F868397A800101F062
:1045F0003F0100F4707001434FF48160FFF700FA4F
:1046000000F030FC3968786841EA800140F21440DB
:10461000FFF7F6F9F87C08B926F00406387C08B9EB
:1046200026F00206B87C08B97608760000F01DFC7A
:104630003146BDE8F4404FF42160FFF7E1B931465F
:104640004FF42160FFF7DCB970B504464FF4826087
:10465000FFF722FA420800F0FF0102F480724500E1
:10466000114305F400750D4345F020014FF48260BD
:10467000FFF7C6F942F2BC06FFF78AFD012C0FD105
:1046800020F0040100F01AF800F013F88005FBD5C3
:1046900025F02001BDE870404FF48260FFF7B0B90B
:1046A00040F0040100F00AF800F003F88005FBD5A3
:1046B000EEE74FF42160FFF7EFB900213046FFF736
:1046C0009FB970B543F20806012808BF43F20C06F3
:1046D0000C461546FFF75CFD012D0CBF044320EA94
:1046E000040421463046BDE87040FFF789B9002830
:1046F0000CBF43F2080043F20C00FFF7CDB90146AE
:1047000043F20400FFF77CB910B500280C460CBF3B
:1047100043F2100043F21400FFF7BEF9204018BF27
:104720000120C0B210BD00280CBF43F2100043F2BC
:104730001400FFF7B1B910B5044600202168FFF757
:104740005FF961680420FFF75BF9A1680C20FFF7AF
:1047500057F9E1680820FFF753F92169BDE81040D7
:104760001420FFF74DB9014642F21810FFF748B97F
:1047700010B542F21C1400F07CFB2046BDE810404E
:104780000121FFF73DB900B593B00D216846FEF752
:10479000F8FF3C2104A8FEF7F4FF6846FFF734FA5F
:1047A00004A8FFF78AFBDFF8A01642F21810FFF703
:1047B00027F9FFF7DDFF13B000BD70B504460025F3
:1047C00044F244164FF48060FFF766F96D1CB04266
:1047D00003D0012CF6DBAC42F4D2284670BD80B584
:1047E00000F02DFFC82000F0ADFD00F023FFBDE874
:1047F00002404FF4FA7000F0A5BDF8B501208DF825
:1048000002008DF801008DF800008DF808008DF889
:1048100005008DF8060000208DF80C00ADF80A00A8
:104820008DF809008DF804008DF803008DF807005D
:104830006846FFF7E9F905B000BD70B504460420ED
:10484000FFF75DFFDFF8046601213046FFF7AEF9A0
:104850000025012000F076FD042100F01EF850B97B
:10486000206810F1010FF4D0401E2060F1D100F05B
:10487000E2FA284670BD0120FFF7B4FB0546F6E7D3
:1048800000000000FFFF0F0001220421012018E7B3
:1048900000213846FFF7B4B802210120FFF734BFEA
:1048A0002DE9F84F2DED028BC2B0044601270026FA
:1048B0007CB194ED018AB5EE408AF1EE10FA03D096
:1048C000A0691B2800D210B96FF001005DE20D0055
:1048D00002D16FF0020058E294ED030A0FF2687102
:1048E00000F0A0FBD4ED000A01EB8000A8BF002778
:1048F000F5EE400AF1EE10FAD0ED008A08BF01266D
:1049000018EE100A00F0ECFB0022DFF82C37FCF761
:10491000A7FE8046894618EE900A02F0BFFA0246CA
:104920000B4640464946FDF729F800F07FFC00EEB3
:10493000100ADFED190A80EE200A9FED181A20EE0A
:10494000011ABCEEC11A11EE10BA0BF101004FEAC8
:10495000500B40F21750834528BF40F2165B00EE23
:1049600010BAB8EE400A9FED0E1A20EE010ADFEDF4
:104970000D1A9FED0D2AC0EE211A38EE022AF8EE2C
:10498000680AC1EE821A21EEA00AC0EE200A60EE8B
:10499000880ADFED061A0BE00080094500E07F453C
:1049A0000000FA4400E0FF440000C84200803B459C
:1049B000C1EEA00AB2EE021AF4EE410AF1EE10FACC
:1049C000A8BF4FF0040818DAF1EE001A00F0E4F97D
:1049D000A8BF4FF0030810DAF0EE001A00F0DCF97F
:1049E000A8BF4FF0020808DAF7EE081A00F0D4F971
:1049F000ACBF4FF001084FF00008DFEDE60A80EE93
:104A0000800A00F0D4F9A8BF4FF0040918DAF1EEDB
:104A1000000A00F009FBA8BF4FF0030910DAF0EE1E
:104A2000000A00F001FBA8BF4FF0020908DAF7EE18
:104A3000080A00F0F9FAACBF4FF001094FF0000985
:104A40000FF2706000EB890100EB880091ED000A25
:104A5000D0ED000A80EE208A4FF40050FFF71CF8DA
:104A6000169000F0E5F9824601220621FFF70EFFBD
:104A70004FF0FF30FFF743FE00F0E1F9FFF7BDFE16
:104A8000402106A8FEF77DFE03200B900C97012124
:104A9000606A0A90206A09908DF8341000208DF821
:104AA00035008DF8361004F1280090E88C0010A92C
:104AB00006A881E88C00FFF77FFA3C2117A8FEF7D3
:104AC00060FE206900B1012017902021ADF8781018
:104AD0004FF40060ADF8760011211B9100208DF895
:104AE00074001C90012118911A9119918DF875107C
:104AF00035AF20691F90E0698DF894108DF89510FE
:104B00002390042121910021A06922902091207DF1
:104B100001280CBF4FF4B0704FF4A070249017A878
:104B2000FFF7CBF9702126A8FEF72BFE00208DF8A9
:104B3000F400206900280CBF0120022078610521C3
:104B40001F20F8613DA881600B21416005210161B2
:104B50000B21C1600020B8612A902B904FF40071A6
:104B6000FF202C902069289100280CBF4120812033
:104B7000269001202790002E4FF4106029905ED0DF
:104B80004FF0FF30049000212D918DF8B8108DF872
:104B9000B910C7F810B026A8FFF786F80BF500602B
:104BA000C0F30B0142F24800FEF72AFF01214FF447
:104BB0009940FEF7FBFF0120269027904FF40076E6
:104BC0004FF410672896299726A8FFF77FF84FF42F
:104BD0007A7000F0B7FB00F0F2F800F0F9F800F09E
:104BE000EBF8059000F001F900F0F2F800F0E4F8BD
:104BF00083462069289600280CBF412081202690FA
:104C000029970120279026A8FFF760F84FF47A70C3
:104C100000F098FB00F0D3F800F0DAF800F0CCF8E0
:104C20000599401A0290002000F0DEF800F0D0F85C
:104C300000F0C2F8A0EB0B00009000205AE0C7F88B
:104C400004B000F0AEF8359000210020B860F860A4
:104C500038618DF8B81002202D908DF8B91026A873
:104C6000FFF722F800F0D7F801214FF44060FEF77B
:104C70009DFF642000F066FB00F0A1F800F0D3F87F
:104C800000F0A9F800F0CAF8FFF706FE0028FBD0F4
:104C90004CF2801600F0CFF800F0BDF800F0B4F848
:104CA00000F0B5F800F0A0F800F0BDF800F093F8BF
:104CB00000F0B4F8FFF7F0FD0028FBD000F0BBF8DF
:104CC00000F0A9F800F0A0F8009000F0A1F800F0C2
:104CD00085F844BF0143029103998A0344BF01430D
:104CE000039100998A0344BF0143009101998A030B
:104CF00001D50843019001984042019002A9039810
:104D0000404203906846FEF766FD04A880EC020A64
:104D100094ED010ADDED040A80EE080A20EE200A77
:104D20008DED040A94ED011ADDED050A81EE080A05
:104D300020EE200A8DED050A606B20B904992960E8
:104D40000598686009E004A8FEF76EFD85ED000A8D
:104D500004A8FEF781FD85ED010A5FEA8A7001D49F
:104D600000F076F85FEA4A7001D400F076F8169900
:104D70004FF40050FEF744FE002026902790289024
:104D8000299026A8FEF7A2FF002042B0BDEC028BBE
:104D9000BDE8F28F00803B45F4EE610AF1EE10FAB7
:104DA0007047D4ED020A94ED000AFFF751B8B4EE53
:104DB000410AF1EE10FA704704A8FFF73EBD142037
:104DC000079024210691CDF8208006A8FFF72DB981
:104DD000322000F0B7BA192000F0B4BA019002995D
:104DE000DFF85C028A0370470390206918B902213A
:104DF0000791212002E00321079122200690CDF89F
:104E0000209006A8FFF711B90320FFF7EBB8029036
:104E10000420FFF7E7B80220FFF771BC01214FF42F
:104E20000140FEF7C3BE01214FF48140FEF7BEBE34
:104E30000120FFF75CBC00213046FEF7B7BE002121
:104E4000DFF80002FEF7B2BEE5470A0000010100EC
:104E5000002202210120FFF734BC0022042101209E
:104E6000FFF72FBC0A2000F06DBA29462046FEF756
:104E7000C7BD00212046FEF7C3BD0000F8B5040001
:104E80000D462DED028B14BF002D6FF002009EB079
:104E900000F0BD8094ED010AF7EE000A00F0C4F8BE
:104EA00048BF6FF0010000F1B28008A8FFF7C2F917
:104EB000FFF7BEFF064601224FF40041FFF7E6FC74
:104EC0004FF0FF30FFF71BFC0120059000218DF80B
:104ED00018008DF81910ADF81A10079105A8FFF702
:104EE0006FF90FF2E410049000210091012002906C
:104EF00021688DF80C0001916846FFF7EFF9012059
:104F0000009021680290491C019168460FF2BC1183
:104F10000491FFF7E3F900208DF870000C90DFEDAD
:104F2000450A01200D900B90B6EE001A042018904F
:104F3000032194ED010A199100EE201ABCEEC11A6A
:104F400011EE100A401F14904FF0FF32401D1592D1
:104F500008EE100A0BA8FFF7FAF900F05CF8012040
:104F6000FFF79AFA4FF40041FFF797FC0028F9D0B9
:104F7000FFF7E9F907460020FFF78EFA0422042123
:104F80000020FFF79FFA0120009002202168029084
:104F9000491C019101200FF238118DF80C00049189
:104FA0006846FFF79BF90120FFF75DF900F033F841
:104FB0000120FFF771FA4FF40041FFF76EFC002863
:104FC000F9D0F60BFFF7BFF94FF40041C71B0020E3
:104FD000FFF79AFB0020FFF75FFA08A8FFF7F0F849
:104FE00006F001024FF40041FFF750FC00F013F807
:104FF000B8EE480AD4ED020A08EE907A20EE200AB4
:10500000F8EE680A80EE200A85ED000A00201EB046
:10501000BDEC028BF2BD4FF40040FFF770BB000007
:1050200094ED020ADFED050AB4EE600AF1EE10FA23
:105030007047000000000042000099400150C34B3F
:105040000000FCFFE0FF3900000000006E000000DF
:10505000E8030000D0070000B80B0000A00F00001C
:1050600070170000401F000010270000E02E000015
:10507000803E0000204E0000C05D00003075000042
:10508000007D0000409C000080BB000000FA000092
:10509000084C010000770100A0860100C0D4010087
:1050A00000F4010000710200A0FD020000E803000E
:1050B00000D007000000803F0000C03F000000401B
:1050C0000000804000001041FFFFFF7F00000081D2
:1050D000FFFFFF7F00000081002201F0F1BE04020B
:1050E000C0F3C75181B1FF2906D0C110400721F09C
:1050F000E04101F16051704741020CBF40F4E00112
:105100006FF000410020704700F0004100020AD01B
:10511000B0FA80FC00FA0CF001F16051A1EB0C51E7
:1051200001EBD0214005704751EC100B00B500F0A9
:1051300003F841EC100B00BD40F2FF7C0B0D4DD08D
:10514000634566D230B421EA035141F4801103F281
:10515000FD3C5FEA5C0C01D300184941890041EA3B
:10516000907180004FF440140023E202D50AB1F59B
:10517000100107D46D081DD2091B6419001849419C
:10518000491BF7D56D080AD20919641B001849415B
:10519000491BEFD56D08F7D301E0520817D0C018AE
:1051A00061419B1AAC4100184941801AA941F4D4CD
:1051B00052080AD0C01AA1419B186C4100184941FD
:1051C000801AA941E9D45208F4D15B1C6C416108F2
:1051D0004FEA330001EB0C5130BC704750EA010339
:1051E000FBD030B4B1FA81F311B9B0FA80F41B19D5
:1051F0000B3BB3F120042FBF00FA04F19940C3F137
:10520000200420FA04F438BF21439840D3F101036D
:105210009DE7634514BF50EA410CDEE711F5801F9E
:10522000DBD8D943AFF300807047000001F00042A3
:105230008B1AA3F16051B1F5801F0ADBB1F17F6FCA
:105240001FD242EAC102C10071F1004142EB50702D
:1052500070470B15C3F10903212B10D2890241EAD3
:10526000905180020128494141F0004121FA03F0A8
:10527000C3F12003994071F1004150417047100083
:1052800070476FF0000013EB103F5CBF000E42EA66
:10529000C050704741EC100B01BD80B553EC112B91
:1052A00051EC100B01F03CFEF4E72800DFF800F0B1
:1052B00001CE021010B5324C0021217060614FF018
:1052C000FF31616002200021A16021732076204619
:1052D0002C49216101F002FF2146002001F0DEFE91
:1052E0002549486200B9FEE7412008705420487003
:1052F00088705F20C8705320087100204871BDE895
:1053000010401E48FFF7D2BF10B51B4C2061E26071
:105310000022A0686161401CA060A26104F10C0140
:10532000606A01F0E3FE00B9FEE7522060703821A8
:105330005720A07021705F20E07053202071002062
:10534000607110BD80B50A21484301F0A7FD0E4AE7
:105350000E4BFCF785F901F0DDFEBDE80240FFF7DA
:10536000A5BF0B49086070470948006870470849A5
:10537000002008600120704784500020A0860100B2
:1053800064500020801A0600FCA9F1D24D62503F03
:1053900060500020DFF800F0295E0210DFF800F016
:1053A00009EC0210DFF800F0A5C00210DFF800F0F1
:1053B000D9D50210DFF800F021EB0210DFF800F081
:1053C00049E60210DFF800F0C52102107FB50FF2A8
:1053D000300393E870000A46694681E870000021B6
:1053E0005DF82140A04203D0491C0C29F8D37FBDB1
:1053F000DFF8603DC1B2D86A02F035FA7FBD000027
:10540000000000000B000000160000007FB501291D
:10541000DFF8B438DFED9A2A6A4605D003D30329B2
:1054200000F0A48066D37FBD0A258DF80050FDEE04
:10543000C01A11EE901A0C25F8EEE11A957230EEB2
:10544000610A20EE220A0D04196083ED030A2D0E75
:1054500091705570BDEEC00A10EE101A0D042D0E9D
:10546000D5701171FDEEE01A11EE904A2104090E7B
:1054700091715C60D471F8EEE11A70EEE10AFDEE14
:10548000C11A11EE900A98601073F8EEE11A31EE2D
:10549000611A60EEA20ABDEEE00A10EE101A0C04CA
:1054A000240E1472517221EE221A0104090ED172D7
:1054B000BDEEC10A10EE100A907300F06AF8517345
:1054C0000B26D078117B9876C3ED040A83ED051A7C
:1054D000567100F065F8D07A83F8200003F12100BE
:1054E0000170517B4170917B81700520142102F085
:1054F0008DFA7FBDBDEEE10A10EE100A0A24B8EE67
:10550000C00A8DF8004031EEC00A20EE220A0404E1
:10551000186083ED030A240E90705470BDEEC00A2B
:1055200010EE100A0404240ED4701071FDEEC20AAD
:1055300010EE901A0804000E90715960D171F8EEC7
:10554000E00A72EE600A60EEA20ABDEEE00A10EE1A
:10555000100A507200F01DF811720B25D078987661
:10556000C3ED040A557100F01BF80AE00104090EAE
:105570008DF8001050700D210DF10200FFF7ACFD09
:105580006A461421052002F041FA0A20FFF78EFE38
:105590007FBD010450781876090E907858767047D0
:1055A0001079D87690791877D0795877107A9877DB
:1055B000507AD877704780B5052002F02CFCBDE802
:1055C00002400120FFF7CDBE042002F024BC10B53C
:1055D00002F036FB0021052002F0A9FB0021042087
:1055E00002F0A5FBDFF8744B2146002002F09FFB80
:1055F000DFF86C1B002002F083FB002002F0ECFAC5
:105600002146012002F093FBDFF8581B012002F035
:1056100077FBBDE81040012002F0DEBADFF8340B62
:10562000C06A002203E0DFF82C0BC06A01220F21C0
:1056300002F019B9DFF81C0BC06A012203E0DFF8A1
:10564000140BC06A0022152102F00DB900B58FB00D
:1056500008233C2200216846FFF7A0FEDFF8080B74
:1056600000F1500107914FF48062012108920691E8
:1056700000236A460FF28921FFF798FE0FB000BDA4
:1056800000007A443EB5DFF8CC4A04F1340104F15D
:105690000E0002F09EFE04F1780003F0CFF9A06343
:1056A000002104F14C0001900091002341F2883266
:1056B000DFF8B81ADFF8B85A04F1840003F08EF965
:1056C00004F1CC00009015230022DFF8A81A00F0A6
:1056D000A8FF02230022DFF8A01A00F0B1FD01208C
:1056E0008DF80700012100208DF805008DF80610C7
:1056F0000DF107008DF80410009001234FF4806233
:1057000000F0FAF80DF106000090012340F2024289
:1057100000F0F2F80DF105000090012340F2034281
:1057200000F0EAF801A80090012340F2064200F0E0
:10573000E3F84FF0FF32DFF8441A00F086FD4FF037
:10574000FF32DFF83C1A00F080FD03F0DBF94FF088
:10575000FF3002F027F901208DF8030003200FF23B
:1057600054128DF801000221D2E900358DF80210A3
:1057700001A80421C0E900358DF800100DF10302E5
:105780000121002002F042F90DF102020121012065
:1057900002F03CF90DF101020121022002F036F97C
:1057A00000F011FB01AA0521042002F02FF904F5F5
:1057B000887002F024F904F58472DFF8E01C00F030
:1057C00044FD00F095F80246DFF8D41C00F03DFDE2
:1057D00000F08EF80246DFF8CC1C00F036FD40F6F3
:1057E0004803FB22DFF8C01CDFF83C5D00F028FD19
:1057F000DFF8B81C00F020FD4FF6FD7001F05DF8F9
:1058000000F076F800210222019100920346042262
:10581000DFF89C1C00F005FFC021284603F078FA51
:10582000002018214FF6FF72C3B24B43401CEA52CE
:10583000C3B2082BF8DB00214FF0FF3003F06CFA05
:1058400020634FF0FF32DFF8245D0FF27000286014
:1058500000F04AF8206BDFF8D43C0522294603F01B
:10586000A1FADFF80C0D0FF268030178206B00221B
:1058700003F086FA04F15C0104F1500001F03EFEF1
:10588000E0620C22DFF8EC1C00F0DFFCFFF79FFE6B
:10589000E06A01220C2101F0E6FFE06A01220F21FB
:1058A00001F0E1FF01F0DAFB03F096FC062003F0C3
:1058B0009FFC37BD010203040500000053696D70B1
:1058C0006C65205065726970686572616C000000DB
:1058D0003D3D3D3D3D3D3D3D3D3D3D3D3D3D3D3DF8
:1058E0003D3D3D3D000000000021284603F0B3BAD5
:1058F000A17B502002F0BDBF2946102002F0D2BF8C
:105900003EB5FFF7BFFEDFF84C58686B4FF0FF3332
:105910004FF040420021FFF745FD0400F5D0002084
:10592000019001AA69460DF1020002F089FDC8B993
:10593000BDF802100120102902BF9DF80020A97BAC
:105940008A4208D101990A884FF6FF739A421CBF18
:10595000084600F019F8019900291EBF00280846E2
:1059600002F059FD6000D0D5A86BFFF723FD002899
:10597000CBD1A86B03F083F80400F5D000F0DAF87F
:10598000204602F0DEFDEFE738B5DFF8E41B0C78C7
:105990000546DFF8C0072A78006B611C912A1CD0ED
:1059A000B02A05D0D02A66D1284600F011FA62E06C
:1059B0002A797E2A03D12A7A0FF2C00304E07F2AD3
:1059C00005D12A890FF2C403009200F0F8F9297971
:1059D00005F10800FFF7DEFC4DE06A780E2A06D0DC
:1059E0000F2A0DD0102A06D03E2A20D043E02846A8
:1059F00000F0F4FF3FE00021082003F0ADFC3AE0A6
:105A0000AA8842F23204A24235D1AA781A2A04D1D5
:105A10000FF2880300F01CFC06E00092C9B20FF2FE
:105A2000AC03002203F0ACF92946204621E0AB7814
:105A30000C2B20D1EA7822B10FF2B00300F008FC61
:105A400015E0E979012908BF9DA109D0022908BF05
:105A50009CA105D003290CBF0FF2A4010FF2A801ED
:105A60000091A41C0FF2B803E1B203F089F92946B2
:105A70000C2001F0A5F8012032BD0000464320565D
:105A8000696F6C617465643A202564004D5455203B
:105A900053697A653A202564000000005048592077
:105AA0004368616E6765206661696C7572652C205C
:105AB0007065657220646F6573206E6F74207375F6
:105AC00070706F72742074686973000050485920B8
:105AD00055706461746520537461747573204576E4
:105AE000656E743A203078257800000050485920BF
:105AF0004368616E6765206661696C757265000058
:105B0000434F444544000000556E657870656374EA
:105B10006564205048592056616C7565000000008E
:105B2000504859205570646174656420746F202555
:105B3000730000007CB50446DFF818062178006B7E
:105B4000491E08290AD8DFE801F0050A2049778EA6
:105B500096999F006168087800F0A2FBAAE061684E
:105B60000878020707D50D2001F055FE002801D165
:105B700003F081F99EE0C006FCD50E2001F04BFE3B
:105B8000002801D103F093F994E06568DFF8E0198B
:105B900009782A68091D012A11D0022A09D0102A81
:105BA00014D16A685388019312780FF2201300927F
:105BB0000AE06A68137800930FF2341304E06A680D
:105BC000137800930FF23C1300F0F9F82868B0F155
:105BD000004F6FD0686802F0B4FC6BE06368DFF8D8
:105BE00090191A7909781B78C91C032B62D8DFE851
:105BF00003F01C120A0212B90FF21C1318E00092F3
:105C00000FF228130EE012B90FF2381310E00092D1
:105C10000FF2441306E012B90FF2541308E0009299
:105C20000FF25C1300F0CBF844E00FF2681300228F
:105C3000C9B203F0A5F83DE06168DFF8E06C8D1DA6
:105C4000E97841B1DFF828190FF258130978009666
:105C5000C91C00F0B4F8009600232A88DFF8E41C81
:105C600000F0DFFC26E06946022001F01DFF08BBC2
:105C700000F0A9F81EE000F032FC1BE06068B0F80C
:105C8000010000F061FE73BD6568688800F002FEE7
:105C9000082804DB00F0C8FC00F0CAFCFCE700F0B8
:105CA00090FE1044C27D012A04D16A88DFF81C1DD1
:105CB00000F0CBFA606808B102F043FC73BD00004D
:105CC000314D0000324D00002C52002041647620FE
:105CD0005365742025642064697361626C65642077
:105CE000616674657220636F6E6E2025640000002B
:105CF0004164762053657420256420446973616291
:105D00006C656400416476205365742025642045E9
:105D10006E61626C65640000426F6E642073617630
:105D2000652073756363657373000000426F6E6472
:105D30002073617665206661696C65643A2025642C
:105D400000000000456E6372797074696F6E207395
:105D50007563636573730000456E6372797074696F
:105D60006F6E206661696C65643A202564000000EE
:105D700050616972696E6720737563636573730040
:105D800050616972696E67206661696C3A202564AA
:105D90000000000050616972696E6720737461725F
:105DA0007465640050617373636F64653A202564A1
:105DB00000000000009453463178386B891C0022A3
:105DC000C9B202F0DDBF6A460121032001F01EBE08
:105DD0002DE9F04F93B00546DFF87873DFF8F09BBC
:105DE000DFF8F01BDFF884870FF2983ADFF880675E
:105DF00007F184000190A87860B1052800F0D480F4
:105E0000062800F00681072800F06D81112800F0B7
:105E1000488194E16878002840F09981A979DFF8F9
:105E2000B84B8DF80C1003A8E979417003AA297AC0
:105E3000817000210171C170E97AC171A97A817103
:105E40000821687A8DF81100002002F069FE31788F
:105E5000386B0FF24033491C00F0FAF90CA80FF22E
:105E600040311C2203F046FB07F1100000900CAB00
:105E70000FF2C9722146FFF740FDC0B220B100F019
:105E8000D3FB00F0D5FBFCE70B200090DFF8B0ACB3
:105E90003A7C0197002300F0C3FBC0B220B100F0B0
:105EA000C3FB00F0C5FBFCE707F1E4001B210290F7
:105EB0000190009101233A7C00F0B2FBC0B220B106
:105EC00000F0B2FB00F0B4FBFCE7DFF8B8BC3A7CB2
:105ED000922300F0B4F900F0BFF9C0B220B100F095
:105EE000A3FB00F0A5FBFCE705A80FF2D0211C22C4
:105EF00003F000FB07F11100009005AB0FF23D72BB
:105F00002146FFF7FAFCC0B220B100F08DFB00F093
:105F10008FFBFCE70B2000900197002300F07FFB34
:105F2000C0B220B100F080FB00F082FBFCE71B2137
:105F3000029801900091012300F071FBC0B220B1E2
:105F400000F072FB00F074FBFCE792237A7C00F017
:105F500076F900F089F9C0B220B100F065FB00F0DD
:105F600067FBFCE7A81D02F097FD01907AA0009066
:105F700000223178386B0FF26023891D00F0E3FDB9
:105F800000F0ADFA07F14D000121019000910023CE
:105F900040F6B8320FF2995107F1A80002F01EFD49
:105FA000002200F045F9D2E000F046F9C4B2FFF754
:105FB00001FF6878A0B9688900F034FC281D02F060
:105FC0006BFD009000223178386B0FF2182300F03F
:105FD000B9FD0222012100F02CF9019802F023FD05
:105FE000082C0BDAF87B48B90021009100233A7C99
:105FF000494600F016FB00F037F9A8E0DFF8484CFE
:106000007A7C214600F021F93A7C214600F01DF906
:106010009DE000F011F931780FF2D813C4B2491C99
:10602000386B00F015F9FFF7C5FEB5F804A050462F
:1060300000F030FC082825D0182148430090DFF8F4
:10604000E8B400990BF10800455895B1284602F0D4
:10605000ECFC10B1284602F0EFFC2846FFF7AEF941
:10606000284602F06EFA00990BF10400405802F045
:1060700068FA504600F054FC504600F067FD504668
:1060800000F01BFC2CB9019802F0D6FC012200F0B4
:10609000CFF800F0E1F800F0E7F831780022C91CF1
:1060A00051E0A888ADF80000A97B8DF80A10688936
:1060B00078B9E988ADF8021001212889ADF804000B
:1060C0006889ADF80600A889ADF808008DF80B10B6
:1060D00002E000208DF80B006A46DFF8241C102037
:1060E00002F0E0FB33E0AA88DFF8181C02AB1020B6
:1060F00002F0D8FBE87800280DF10A0005D102F083
:10610000CBFC00900FF63C4306E002F0C5FC01908A
:106110000FF2F803A878009000223178386B891CC0
:1061200000F011FD07F13C0003F032FA04000ED03C
:10613000208900F009FC204602F003FA07E03178DC
:106140008A1CD2B2491C386BC9B202F011FE13B0DE
:10615000BDE8F08FF020002049440000000003015A
:10616000B7550000C9550000E02700203165000048
:1061700085660100B16F0100111C0210157001004D
:10618000613801004E756D20436F6E6E733A2025A5
:1061900064000000496E697469616C697A65640025
:1061A00013000000A0000000A00000000700AAAA41
:1061B000AAAAAAAA007F01010000000001000000B5
:1061C000A0000000A00000000700AAAAAAAAAAAA8C
:1061D000007F838300000000257320416464723ACD
:1061E00020257300436F6E6E656374656420746F61
:1061F0002025730044657669636520446973636F85
:106200006E6E656374656421000000004C696E6BFE
:1062100020506172616D2055706461746520466123
:10622000696C656420307825783A20257300000079
:106230000221404602F00FBE102002F033BB594647
:10624000102002F02FBB227C3946102002F02ABB1E
:106250000022C9B202F094BD0020009000233A7CD5
:106260004946102002F01EBB0020009000237A7CDB
:106270004946102002F016BB38B50546012002F051
:106280005FF904000AD025702146012000F031FAA0
:1062900020B12046BDE8324002F053B931BD0000C4
:1062A0007FB5064602A803F0DBF9DFF85C4AB04D83
:1062B00016B1022E49D07FBD01A9002001F0F4FBE8
:1062C0009DF8040029780FF69423DFF8406A00F067
:1062D000FFF8606C9DF8041004F10C0211543218A0
:1062E0009DF8041082F82610B062401C6064607B48
:1062F00000282AD0237B9DF80420102B07D0202BC8
:1063000029D0502B12D0602B00F08180AAE0012808
:1063100002D002281AD005E0B284032141F2010024
:1063200000F0AFF80020A08100F0C4F8607B9DF879
:106330000410A0F11102052A50D2B18445F21000D8
:1063400000F09EF800F0B6F820628DE0B2840321E0
:1063500041F20200E4E7411E0529E5D8DFE801F03B
:10636000040F18222B35DFE7B284032142F201002B
:1063700000F087F800F0A7F8FFF728F8D6E7B28416
:10638000032142F2020000F07CF800F097F8F3E7F6
:10639000B284032142F2030000F073F800F093F896
:1063A0000B20E9E7B284032142F2040000F069F80F
:1063B00000F084F8F4E7B284032142F2050000F013
:1063C00060F800F080F81620D6E7B284032142F28C
:1063D000060000F056F800F071F8F4E7A0F1210291
:1063E000052A08D2B18445F2200000F049F800F0F7
:1063F00061F8606238E03138052833D2B18445F263
:10640000300000F03DF800F055F8A0622CE00128C3
:1064100028D1B284032146F2100000F032F800F0D7
:1064200052F8FEF7D3FF01210B20FEF7CFFF206AC1
:106430004EF660267043FEF739FF00210B20FEF771
:10644000C5FF01211620FEF7C1FF606A7043FEF709
:106450002DFF00211620FEF7B9FFA06A7043FEF75A
:1064600025FF01E000F026F801A9022001F01CFB45
:106470009DF8040029780FF6F00300F029F87FBD9D
:1064800003219FEDB72ADFEDB61A9FEDB51ADFEDB8
:10649000B40A9FEDB30AFEF7B9BF0000856801009A
:1064A000D96C02102D6D02100D520210397F0110AF
:1064B000156E01000020A081606470470020A0815B
:1064C0006064002170470020A08160640121704752
:1064D0000090491C206B0022C9B202F051BC7CB56F
:1064E0000020FEF76FFFDFF8205805F580760446A0
:1064F0000622314603F066FDA0B1204602F0CCFA38
:10650000009000221A480FF66C030178286BC91D11
:1065100000F019FB2146304602B0BDE8704006226B
:1065200002F0D8BF73BD0000645100204D6C000024
:1065300080B50178DFF8D027062906D102F1840062
:1065400002F071FA002106200CE0072906D102F1C1
:10655000A80002F068FA0021072003E0082904D10E
:1065600001460820BDE80440C3E001BD042200202C
:10657000585200208D1502102DE9F843DFF8887776
:10658000BC8B8046204600F085F9082804DB00F02B
:106590004BF800F04DF8FCE707EB0809182599F8CF
:1065A0001410DFF86C67FF291CD06843305A00F0E4
:1065B000CDFA99F81420002000901346B88B0021E2
:1065C00000F0E2FADFF84C070FF2B47300EBC800FA
:1065D00000220169DFF8400700910178386B00F074
:1065E000B1FA19E0204600F055F90746082F04DB00
:1065F00000F01AF800F01CF8FCE7009400230FF2FA
:10660000D902DFF8181700F00CF8C0B220B915FB5A
:1066100007F571190120C8750120BDE8F2837A7C65
:106620005146102002F03EB900208DF8000070475E
:106630009DF80010491C8DF80010704770B5054694
:106640000E46082001F07CFF04000BD02560666038
:106650002146032000F04DF820B12046BDE87040EF
:1066600001F06FBF70BDF8B505460E46174606200F
:1066700001F066FF04000CD026706580277121466A
:10668000042000F036F820B12046BDE8F24001F0C9
:1066900058BFF1BD2DE9F84381460E46174698468E
:1066A000102001F04DFF040013D0089DE680062263
:1066B000494602F00FFF277284F80980E560214601
:1066C000052000F016F820B12046BDE8F24301F0A5
:1066D00038BFBDE8F183000010B50446214609200B
:1066E00000F007F820B12046BDE8104001F029BFB6
:1066F00010BD38B504460D46082001F021FF60B1F9
:10670000047045600246DFF80036596B986B02F062
:106710009CF9401E8041C00F32BD132032BD10B520
:106720001822DFF8EC15DFF8E035DFF8F44512FB4E
:1067300000F2895A99830022DFF8E81501EBC000C6
:106740000169DFF8D40521600178186BC91CC9B252
:1067500002F00EFB204602F065FB012010BD000098
:1067600000000000F8B5DFF8A045994D627CE17BA0
:10677000DFF8D474DFF8A065012811D101290CD00D
:10678000FFF762FDFFF75FFD4720A070412000F09A
:1067900040F800F036F80120E0730FF2F85323E0E0
:1067A000022811D102290CD0FFF74EFDFFF74BFD57
:1067B0004720A070422000F02CF800F022F80220C0
:1067C000E0730FF2F0530FE061B1FFF73DFDFFF70B
:1067D0003AFD5320A070502000F01BF800F011F893
:1067E0000020E0730FF2EC5300223178206B093166
:1067F000C9B202F0C5FADFF8300502F013FB012040
:10680000F2BD002000900023627C2946102002F097
:1068100049B8E070002000900023227C2946102017
:1068200002F040B87CB50546152400204FF6FF71F4
:106830001823DFF8DC244343D61832888A4204D078
:10684000401C0828F4DB204676BD3580032001F08B
:1068500077FE7060D0B1082101707068A0F8015017
:10686000242001F06DFEB060002870680BD001900C
:10687000012100910023B068DFF8B01441F270727A
:1068800002F0ACF803E001F05CFE00E0132401200C
:106890003075D8E710B5014600201822DFF87034B3
:1068A000C4B254431C5B8C4205D0401CC4B2082CBB
:1068B000F6DB082010BDC0B210BD2DE9F843082753
:1068C00080464FF6FD79C84506D0FFF7E3FF07463F
:1068D000082FA8BF18201EDA00264FF6FF75B74212
:1068E00018BFC84513D11821DFF824047143441898
:1068F000002025802075E074A0756075052104F1E5
:106900000C00FEF7E9FB0020A0746074E075761CB3
:10691000082EE4DB0020BDE8F283000040E2010025
:1069200070B5DFF8E463F46B054608E02089A842FF
:1069300004D1214606F13C0002F07BFE2468002CC5
:10694000F4D170BDB16801003EB54FF49671ADF859
:10695000081004460020ADF8060068215020ADF86C
:106960000200ADF80410ADF800402046FFF792FF9A
:10697000082804DBFFF758FEFFF75AFEFCE700F09B
:1069800020F81518A868FEF719FDA86801F0D9FDD0
:106990000020A860686801F0D4FD6A46DFF8901313
:1069A000102001F07FFFC0B2112809D10C2001F0A6
:1069B000C7FD010004D00C81DFF8780302F00FFE60
:1069C00037BD1821DFF84823484370470D2B0210CC
:1069D000ED740110AD3E0210990101102DE9FE4346
:1069E000014641F205438A6889881078DFF81883E8
:1069F000DFF82493994205D042F23003994200F027
:106A00008D809AE092F903600028FAD1507891784D
:106A100000EB012080B2FFF73DFF082808DB0021D2
:106A20008DF800109DF80000401C8DF80000F9E77B
:106A3000FFF7C7FF17187F2E65D0787C38440521F3
:106A40000673787C401C7874C0B290FBF1F101EBC6
:106A50008101401A787400210020CAB23A44491CCE
:106A600092F90C208018CAB2052AF6DB00B2052183
:106A700090FBF1F0B8740024F87C002843D197F91A
:106A8000121011F11E0F05DB387D02281CBF0028F3
:106A9000022508D101F128000A2806D2387D0128F4
:106AA00003D060B101252A460FE001F132000A2827
